:020000040000FA
:06000000F2EF0BF012000C
:020006002E00CA
:06000800FAEF09F01200FE
:02000E001200DE
:0400100000000000EC
:0400140000000000E8
:06001800BEEF09F012002A
:02001E000600DA
:1000200091180000000F00002800000014000000DC
:10003000700F000004000000301800008000000075
:100040006100000020180000480F000010000000B0
:1000500000180000280F0000200000001000000021
:080060006C0F00000400000019
:0800680048EC04F07BDB11AE53
:1000700002D01268136820DB13E289DB49DB04E657
:10008000050E105C000E115806E2020EDB2A030E6C
:10009000F5E3DB2AF3D7DF2A010EE8E3DB2AE6D714
:1000A000040EE15C02E2E16AE552E16EBBD2F0DBF4
:1000B00059DB11AE02D012681368FEDA13E267DB77
:1000C00027DB04E6EE0E105C000E115806E2020E6D
:1000D000DB2A030EF5E3DB2AF3D7DF2A010EE8E380
:1000E000DB2AE6D7040EE15C02E2E16AE552E16E4A
:1000F00099D2D4DBF00B6BDBFE0EDB38F00B8112F8
:1001000078DA90D2C2DB190E50DB0F0E8116F80E92
:1001100081160F0E8116300E5ADB300E58DB300E72
:1001200056DB818A66DA280EE66EE3DFE5520C0EB6
:10013000E66EDFDFE552E55275D29DDB010EDB6A2C
:1001400081944ADBE76E010EE7CFDBFF819644DB4B
:10015000DF6E010EDB50DF128196010E51DADF50A7
:10016000106E020EE15C02E2E16AE552E16E1050AF
:1001700059D28BDBDF6AE1DFDF6EDFBEFCD7DF50F9
:10018000E55250D28BDB81128186050E39DA8196D9
:10019000050E36DA47D241DA8194050E31DA98DA63
:1001A00041D23BDA8184050E2BDA92DA81943AD27D
:1001B0003BD33AD332DAFD0EDBCFF6FFFE0EDBCFB8
:1001C000F7FF0800F5500DE0FD0EDBCFF6FFDB2A50
:1001D000FE0EDBCFF7FF01E3DB2A0800F5501BDB47
:1001E000EAD720D252DBFD0EDB500F0B106EFE0E55
:1001F000DB50010B400DF3501024DF6E7F0EDF1437
:10020000800FDF6EDFCFE6FFC6DFE552E5520AD290
:10021000010EE66EC0DFE552E66AE66A54EF04F0CE
:10022000FCD9050EE126010EF36EDB6EB0DA040E8A
:10023000DB6ADF6ADFCF10F0116A10BE116899DA4D
:1002400011501318E8AE02D0133404D01250105CD1
:10025000135011581FE2FD0EDBCF10F0FE0EDBCF66
:1002600011F0126A136A11AE02D012681368D950E5
:10027000010FE96EDACFEAFF10C00BF011C00CF0ED
:1002800012C00DF013C00EF0DBDA53EC0BF0E1DA24
:10029000DF2AD0D7010EDBCF10F0020EDBCF11F03A
:1002A000030EDBCF12F0040EDBCF13F010C006F00C
:1002B00011C007F012C008F013C009F0050EE15C90
:1002C00002E2E16AE552E16EADD1D5DAFB0EDBCF99
:1002D00010F0FC0EDBCF11F0FD0EDBCF12F0FE0EA6
:1002E000DBCF13F0105011101210131003E1300E79
:1002F00092DA36D0D950FB0F14DA01E618DA05E2AB
:100300002D0E89DAD950FB0FCAD9DE52070EDD6EE9
:1003100037DAE8AE02D0103403D0E750D88010545A
:100320001FE217DA14BE156871D936DA5EDA08DA18
:100330000BE0010EDF6EDB04186E196A18BE196837
:1003400083D953DA9FD903D0DF5002E0300E63DA4D
:1003500000DA14BE15685AD9D950FB0F6CD9D8D71A
:10036000020EE15C02E2E16AE552E16E5BD155D931
:10037000C7D9D950F90F53DAEECFE6FFEECFE6FF3B
:10038000EECFE6FFEFCFE6FFA0DFE552E552E55204
:10039000E55248D142D9B4D9FB0EDBCFE6FFFC0EC3
:1003A000DBCFE6FF07DFE552E5523CD136D9FBC093
:1003B00010F0FCC011F0040ED89010361136E8068B
:1003C000FBE192D9FE0EDBCFEFFFFD2B000EFE23EB
:1003D00029D15BDADF6ADFCF10F0100EE76E10185C
:1003E000E8AE02D0E73402D0E750105C18E2DFCF6D
:1003F000E9FFEA6AE9BEEA68C10EE926000EEA22D0
:10040000200EEF6EDFCFE9FFEA6AE9BEEA68D10E9F
:10041000E926000EEA22200EEF6EDF2ADCD7E55235
:1004200001D133DA0001C051030A29E0010A1CE0BE
:10043000030A0CE0010A32E13BDA080EDF5C03E25A
:10044000DF50B9D9FAD70001010E17D0080EE66EB9
:10045000E66A09D9080EDF5C04E2080EDF24ABD996
:10046000F9D70001020E09D00BDA080EDF5C03E2B7
:10047000DF50A7D9FAD70001030EC06F10D0080EC5
:10048000E66E010EE66EEFD8080EDF5C04E2080EA1
:10049000DF2497D9F9D70001C06B01D0C06BE552BA
:1004A000C1D0F3D90001C051010A0DE0010A15E1E4
:1004B000FFD9100EDF5C03E2DF507DD9FAD70001CF
:1004C000010EC06F0BD0DCD9100EDF5C03E2DF50F1
:1004D00078D9FAD70001C06B01D0C06BE552A2D029
:1004E000D4D9E6D9100EDF5C03E2DF5064D9FAD725
:1004F000C7D9100EDF5C03E2DF5063D9FAD7E552AB
:1005000091D08BD8B3D8FBC010F0FCC011F0040E12
:10051000D89010361136E806FBE1E6D8FC0EDBCFAA
:10052000EFFF80D0A8D9A2D8F90EDBCF10F0FA0ED9
:10053000DBCF11F01ED9105011101210131003E16F
:10054000300E0CD936D0D950F90FEBD801E6EFD8E0
:1005500005E22D0E03D9D950F90FA1D8DE52070EAE
:10056000DD6E0ED9E8AE02D0103403D0E750D8804B
:1005700010541FE2EED814BE156848D80DD940D9E2
:10058000DFD80BE0010EDF6EDB04186E196A18BEAF
:1005900019685AD835D976D803D0DF5002E0300E2A
:1005A000DDD8D7D814BE156831D8D950F90F43D843
:1005B000D8D7020EE15C02E2E16AE552E16E32D088
:1005C0002CD854D8FB0EDBCFF6FFFC0EDBCFF7FFA9
:1005D0000800F5500DE0FB0EDBCFF6FFDB2AFC0E2A
:1005E000DBCFF7FF01E3DB2A0800F550B7D8EAD7E5
:1005F00019D08186010ED9D88196010ED5EF03F06E
:10060000E66EE66AE66AE66A2FDD56D114C0E6FFBA
:1006100015C0E6FF10D932EF04F0D9CFE6FFE1CFE5
:10062000D9FF1200E552E7CFD9FF1200EA22EF50BE
:10063000F2D8DF2A1200F3D8AFD802D98BEC0BF036
:1006400008D9010EDB06120018C0E6FF19C0E6FF4C
:10065000F2D806C014F007C015F008C016F009C0A3
:1006600017F0CCEF03F020D9DF6A1200FE0EDB504A
:10067000010B0001FB6FFC6BFD0EDB500F0BFD6FE0
:10068000FE6B1200DBCF09F08BEC0BF0EBD8300ED9
:100690001026000E11221222132210501200BFD871
:1006A000000EEE6CEF1EEE22EF1EEE22EF1EEF228A
:1006B000ED52ED52ED521200D950FB0FB0D8EE5072
:1006C000105CEE501158EE501258EE5013581200B4
:1006D000FE0EDBCFE6FF56DDE552FE0EDB38F00BFB
:1006E000E66E50DDE5521200C10E1026000E1122FA
:1006F00010500001FD25E96E1150FE21EA6E120036
:10070000FD0EDBCFE6FFFE0EDBCFE6FF54EF04F07D
:10071000020EDBCF10F0030EDBCF11F0D89011509A
:1007200012007DD8D890030EEB50000A1200000E84
:10073000EE5C000EEE58000EEE58000EEE58120061
:10074000DBCF09F08BEC0BF00650071008100910F6
:100750001200010EDB04146E156A1200E66E26DE2E
:10076000E5521200DECF10F0DDCF11F0126A136AED
:100770001200FB0EDBCF12F0FC0EDBCF13F01200E9
:10078000010EDBCF10F0000EE76E10181200020E03
:10079000DB6A030EDB6A120006C00BF007C00CF028
:1007A00008C00DF009C00EF01200E66EE66AE66AB7
:1007B000E66A7DDC81D0EA6AC10FE96E000E16EFB1
:1007C00003F0EA6AD10FE96E000E16EF03F0811212
:1007D00010DF0F0E811612000F0E12DF0F0E8112A6
:1007E00081860EDF0F0E81141200FB0EDBCF06F0A8
:1007F000FC0EDBCF07F0FD0EDBCF08F0FE0E120083
:10080000F90EDBCF06F0FA0EDBCF07F0FB0EDBCFE5
:1008100008F0FC0E1200E66ECCDCE5521200E96E28
:10082000FF0EDA20EA6E1200F8DEFE0EDBCFE6FFE6
:10083000B8DCE552F7D60A0EE66EE66AF1DC3CD08B
:10084000EECF06F0EECF07F0EECF08F0EFCF09F0D5
:10085000120005C0EDFF04C0EDFF03C0EDFF02C0B4
:10086000EFFF120006C010F007C011F008C012F030
:1008700009C013F01200D1DE020EE126DF6A120079
:10088000E66A010EE66E33EF03F0C7DEE6521200B1
:10089000C4DE040EE126DE6ADD6A1200BEDE0F0E43
:1008A0008116FE0EDB5012009DDCE552E55212006F
:1008B000E66AE66A33EF03F0E552E552E552E552A7
:0208C000120024
:0E08C2003DDA43D808EC01F0E9EC01F0E80E55
:1008D000E66E030EDCD90F013351FDE0336BDDEC26
:1008E00007F0D4D811EC02F0F6D7C8D9040EE126EF
:1008F000DE6ADD6AEFD9D6D911501318E8AE02D0FE
:10090000133404D01250105C1350115818E2020E28
:10091000DB6A030EDB6A05DAD890115004E6EE0EAE
:10092000105C000E115806E2020EDB2A030EF3E300
:10093000DB2AF1D7DF2A010EDDE3DB2ADBD7040E49
:10094000E15C02E2E16AE552E16E9DD1936A926A4E
:1009500082EC00F0836AB6EC09F0E80EE66E030E56
:1009600096D9570EE66E120EE66EA2EC06F0E55230
:10097000E552AE0EE66E240EE66EB8EC06F0E552D9
:10098000E552660EE66EB70EE66EE7EC06F0E5524F
:10099000E552020EE66EE66A40EC07F0E552E552DB
:1009A0000A0EE66EE66A4CEC07F0E552E552320EAE
:1009B000E66EE66A65EC07F0E552E552D8EC07F022
:1009C00000EC09F00BEF0BF09ED90CE16BD913345E
:1009D00004E212500708000E135404E35DD9EF50EF
:1009E0008310836E50D18FD90CE15CD9133404E2AB
:1009F00012500708000E135404E34ED9EF1C831461
:100A0000836E41D13BD923D9EF0407E157D9EBDFFE
:100A1000E552E5521CD9EF6A07D050D9D5DFE5522F
:100A2000E55215D9010EEF6E2ED189D953D9113463
:100A300004E210500708000E115411E3DECFE6FF68
:100A4000DDCFE6FFC1DF66D9DECFE6FFDDCFE6FF13
:100A5000CADF60D9DF2A010EE9E3DB2AE7D7020EFD
:100A6000E15C02E2E16AE552E16E0DD10F01010E97
:100A7000001903E1015101E1010C000C0F01010E0D
:100A8000021903E1035101E1010C000CF7D80A0E31
:100A9000E12614EC0BF0F3CF10F0F4CF11F0126A52
:100AA000136A11AE02D012681368060E10C0DBFF85
:100AB000070E11C0DBFF080E12C0DBFF090E13C0CA
:100AC000DBFF060EDBCF06F0070EDBCF07F0080ECC
:100AD000DBCF08F0090EDBCF09F08C0E0B6E0C6A31
:100AE0000D6A0E6A53EC0BF002C006F003C007F06B
:100AF00004C008F005C009F00B68030E0C6E0D6A07
:100B00000E6A8BEC0BF0020E06C0DBFF030E07C073
:100B1000DBFF040E08C0DBFF050E09C0DBFFD95068
:100B2000020FE96EDACFEAFF640EEE5C000EEE58BB
:100B3000000EEE58000EEE5806E25CD871D80B0E8F
:100B4000CED80C0E05D056D86BD80C0EC8D80D0ECA
:100B5000D1D80F016F511CE06F6B040EAAD8030EA1
:100B6000A8D8050EA6D8020EDBCF06F0030EDBCF09
:100B700007F0040EDBCF08F0050EDBCF09F00B6A9F
:100B8000010E0C6E0D6A0E6A8BEC0BF0025091D8C0
:100B90000A0EE15C02E2E16AE552E16E74D0CFD860
:100BA00099D8D890115004E6100E105C000E115820
:100BB0001AE2DECFE9FFDDCFEAFFD890E936EA3668
:100BC000000EE9260F0EEA22010EEE1807E1ED50A5
:100BD00005E1DFCFE6FF4DEC09F0E552DF2A010E1B
:100BE000DFE3DB2ADDD7020EE15C02E2E16AE552D7
:100BF000E16E49D096D8040EDBCF12F0050EDBCFA4
:100C000013F00A0E0B6E0C6A0D6A0E6A10C006F025
:100C100011C007F012C008F013C009F08BEF0BF001
:100C200006C010F007C011F008C012F009C013F0A0
:100C300006C0E6FF07C0E6FF08C0E6FF09C0E6FF02
:100C40000A0E58D8060EE66E000EE66E120070D838
:100C5000500EE9260F0EEA22120002C010F003C067
:100C600011F004C012F005C013F002C0E6FF03C08B
:100C7000E6FF04C0E6FF05C0E6FF1200D9CFE6FF9D
:100C8000E1CFD9FF1200E552E7CFD9FF1200E66E9F
:100C90002CDEE552E55212004BD8480EE9260F0E25
:100CA000EA221200FD0EDBCF12F0FE0EDBCF13F0B6
:100CB0001200E66E4DEC09F0E5521200FD0EDBCF9E
:100CC000E6FFFE0EDBCFE6FF1200020EE126DE6A33
:100CD000DD6A1200DECF10F0DDCF11F01200E66EFB
:100CE000E66AE0EC02F0E552E552E552E55282DFB9
:100CF0002DEF06F0E66EE66A92EC02F0146E060E38
:100D0000E15E14501200BADFFE0EDBCF11F0800E50
:100D100011141200E552E552F40EE66E010E47EF93
:100D200006F0020EDBCF10F0030EDBCF11F0120045
:100D3000FD0EDBCFE9FFFE0EDBCFEAFF12009EDFE8
:040D400065EF06F065
:0C0D4400F1D8D59EFD0EDBCF28FFFE0E7F
:100D5000DBCF29FFD59C05D9D59AD586F28AF294A6
:100D6000F184D58EE6D0D59E1200FBD8D58E120028
:100D7000DBD8CD90FD0EDBCF2AFFFE0EDBCF2BFFA5
:100D8000F7D89D809E909F90CD8ECD8CCD98CD9A9A
:100D9000CD96CD92CD80CDD0EBD8CD801200CD9028
:100DA0001200C2D8CA94CC6AFE0EDB500F012C6F21
:100DB0002D6BCB6E9D829E929F92CA90CA92CA84DE
:100DC000B8D02CCFCBFFCA841200CA941200ACD882
:100DD000B190FD0EDBCF2EFFFE0EDBCF2FFFCFD865
:100DE0000750B36ECCD8B5D8B26EA082A192A292B1
:100DF000B18EB198B19AB192B1809BD0C0D8035056
:100E0000B26EBDD89ED8B36EB1801200B190120000
:100E10000F01382B000E39234051385D41513959AB
:100E200004E3386B396B010E306F12000F013A2B5F
:100E3000000E3B2342513A5D43513B5904E33A6B68
:100E40003B6B010E316F12000F013C2B000E3D2356
:100E500044513C5D45513D5904E33C6B3D6B010EF3
:100E6000326F12000F013E2B000E3F2346513E5DB4
:100E700047513F5904E33E6B3F6B010E336F120045
:100E800053D8FD0EDBCF40FFFE0EDBCF41FF0F013D
:100E9000386B396B306B4DD047D8FD0EDBCF42FF3E
:100EA000FE0EDBCF43FF050E0D6E0E6A42CF08F03B
:100EB00043CF09F069EC0AF008C042FF09C043FFC4
:100EC0000F013A6B3B6B316B34D02ED8FD0EDBCF6C
:100ED00046FFFE0EDBCF47FF0A0E0D6E0E6A46CFB1
:100EE00008F047CF09F069EC0AF008C046FF09C0D6
:100EF00047FF0F013E6B3F6B336B1BD0186A1650D8
:100F0000135C106E17501458116E18501558126E4D
:100F10000C6A010E0D6E0E6A10C007F011C008F0C9
:100F200012C009F08FEF0AF0D9CFE6FFE1CFD9FF69
:100F30001200E552E7CFD9FF120013681468156A52
:100F4000120007C010F008C011F009C012F00750DD
:100F5000120003C010F004C011F005C012F00350DD
:100F6000120014D80350D66E11D8EBDFD76E1200E2
:100F700014D80750CF6E11D8ECDFCE6E1200DDDF33
:100F80002ECF16F02FCF17F07EEF07F0D6DF28CF49
:100F900016F029CF17F07EEF07F0CFDF2ACF16F03B
:080FA0002BCF17F07EEF07F0E4
:080FA8000F0E946E8268120026
:100FB000CF0E9414946E82681200C0D8E0D801E677
:100FC000E2D816E2CDD8E4D8C2D801E6DCD80BE2EC
:100FD000A8D802E1E3D801D001D9020EDB2A030E22
:100FE000F3E3DB2AF1D7DF2A010EE8E3DB2AE6D7B9
:100FF000040EE15C02E2E16AE552BCD09FD8BFD8A2
:1010000004E6020E105C000E11581AE2A9D88214F0
:10101000826E0F0E8210BCD89AD801E6B4D80BE2CB
:1010200080D802E1BBD801D0D9D8020EDB2A030E4A
:10103000F3E3DB2AF1D7DF2A010EE1E3DB2ADFD776
:10104000040EE15C02E2E16AE55294D077D8CAD896
:10105000FD0EDBCF12F0FE0EDBCF13F01150131894
:10106000E8AE02D0133404D01250105C1350115863
:1010700016E2020EDB6A030EDB6A69D804E6EE0EA6
:10108000105C000E115806E2020EDB2A030EF5E397
:10109000DB2AF3D7DF2A010EDAE3DB2AD8D7040EE6
:1010A000E15C02E2E16AE55265D048D868D801E621
:1010B0006AD821E255D86CD84AD801E664D80DE246
:1010C0008DD82FD804E11DD8010EEE6EED6A020E08
:1010D000DB2A030EF1E3DB2AEFD78250816EE80EA4
:1010E000E66E030EE66EB2DFE552E552DF2A010E30
:1010F000DDE3DB2ADBD7040EE15C02E2E16AE552C4
:1011000039D070D8D89010361136D89010361136A4
:10111000020EDB501024E96E030EDB501120F7EFB6
:1011200008F0020EDBCFE9FF030EDBCFEAFF240E4F
:10113000E9260F0EEA22EF5082141200D9CFE6FF03
:10114000E1CFD9FF040EE126DE6ADD6A1200020E4D
:10115000DBCF10F0030EDBCF11F0D890115012004E
:10116000DECFE9FFDDCFEAFF200EE9260F0EEA22EF
:10117000EF1C1200E16EE552E7CFD9FF120032D822
:10118000D89011501200040E105C000E115812007D
:10119000826E020EDB6A030EDB6A1200DECF14F0F1
:1011A000DDCF15F0D89014361536D8901436153694
:1011B000020EDB501424E96E030EDB50152017D805
:1011C000EECF12F0EFCF13F0010E1226000E132215
:1011D00098DF12C0EEFF13C0EDFF120092DFEE6A3F
:1011E000ED6A1200DECF10F0DDCF11F01200EA6ED2
:1011F000D890E936EA36000EE9260F0EEA221200F0
:10120000B06A810EAF6EAC8AAC94B886AC98AB8EE7
:10121000AB889E9A9D8A9F9A949C948E12008CD83B
:10122000040EE126DE6ADD6ADECF10F0DDCF11F0BC
:10123000FD0EDBCF12F0FE0EDBCF13F011501318B2
:10124000E8AE02D0133404D01250105C1350115881
:101250001DE2020EDB6A030EDB6A020EDBCF10F02A
:10126000030EDBCF11F0D890115004E6EE0E105CA7
:10127000000E115806E2020EDB2A030EEEE3DB2A13
:10128000ECD7DF2A010ED0E3DB2ACED7040EE15CD7
:1012900002E2E16AE552E16E54D04ED89EA8FED734
:1012A000FE0EDB50AD6E9E984CD046D857D80AE063
:1012B00055D8E66EF2DFE552FD0EDB2AFE0EF6E3B0
:1012C000DB2AF4D73ED038D840D80EE03ED8E66EC0
:1012D000E4DFE552FD0EDBCFF6FFDB2AFE0EDBCFAF
:1012E000F7FFF2E3DB2AF0D72CD026D8E652AE5037
:1012F000DF6E0F016D51030A16E0010A0EE0030ACA
:1013000007E0010A17E1040EDF5C11E1010E09D0CC
:10131000030EDF5C0CE1020E04D0050EDF5C07E17A
:10132000030E6D6F07D0DF5004E1010E6F6F6D6B20
:1013300001D06D6BE55205D0D9CFE6FFE1CFD9FFE3
:101340001200E552E7CFD9FF1200FD0EDBCFF6FF0A
:10135000FE0EDBCFF7FF0800F5501200FD0EDBCFCD
:0C136000E9FFFE0EDBCFEAFFEF501200A9
:04136C00F28ED08E9F
:10137000F28C1200F19CF292F2881200D8CFE4FFB6
:10138000E0CFE4FFE46E68D800EE00F0100EE80451
:1013900003E3EECFE4FFFBD700EE10F00A0EE80403
:1013A00003E3EECFE4FFFBD7E652F2B47DD89EB064
:1013B00082D8A1B287D8F2B2F2929EAA03D09E9AA6
:1013C00075EC09F0E55200EE19F00A0EE80403E3AB
:1013D000E5CFEDFFFBD700EE0FF0100EE80403E3BE
:1013E000E5CFEDFFFBD74DD8E550E5CFE0FFE5CFEA
:1013F000D8FF100031D800EE00F0100EE80403E32F
:10140000EECFE4FFFBD700EE10F00A0EE80403E392
:10141000EECFE4FFFBD7E652F2B446D89EB04BD8ED
:10142000A1B250D8F2B2F2929EAA03D09E9A75EC65
:1014300009F0E55200EE19F00A0EE80403E3E5CFE7
:10144000EDFFFBD700EE0FF0100EE80403E3E5CF4D
:10145000EDFFFBD716D81100DACFE4FFE2CFDAFFB9
:10146000E9CFE4FFEACFE4FFF6CFE4FFF7CFE4FFF4
:10147000F5CFE4FFF3CFE4FFF4CFE4FFFACFE4FFCE
:101480001200E5CFFAFFE5CFF4FFE5CFF3FFE5CF9C
:10149000F5FFE5CFF7FFE5CFF6FFE5CFEAFFE5CFB4
:1014A000E9FFE5CFDAFF1200B3EC06F0F294B5ECF9
:1014B00006F008EF07F0CFEC06F09E90CCEC06F0BB
:1014C00016EF07F006EC07F0A192FEEC06F032EF03
:0214D00007F023
:0E14D200006A0EAE72EF0AF00D6C0E1EE86A94
:1014E0000E22001E09AE7AEF0AF0086C091EE86AA7
:1014F0000922001ECCEC0BF009BE8AEF0AF000AE08
:10150000000C086C091EE86A0922046C051EE86AD2
:101510000522000C00BE81EF0AF00188FF0C006A72
:101520000EAE9AEF0AF00C6C0D1E0E1EE86A0D222C
:101530000E22001E09AEA4EF0AF0076C081E091E59
:10154000E86A08220922001EAFEC0BF009BEB7EFD3
:101550000AF000AE000C076C081E091EE86A08229B
:101560000922036C041E051E04220522000C00BE85
:08157000ABEF0AF00188FF0C4B
:081578001E0EF66E000EF76E68
:10158000000EF86E0F010900F550676F0900F55065
:10159000686F03E1676701D03DD00900F550626FC5
:1015A0000900F550636F0900F550646F09000900E8
:1015B000F550E96E0900F550EA6E090009000900CE
:1015C000F550656F0900F550666F09000900F6CF08
:1015D00069FFF7CF6AFFF8CF6BFF62CFF6FF63CFEB
:1015E000F7FF64CFF8FF0F01655302E1665307E090
:1015F0000900F550EE6E6507F8E26607F9D769CF86
:10160000F6FF6ACFF7FF6BCFF8FF0F016707000EF9
:06161000685BBFD7120069
:0A161600010E926E0E0EC16EC26A44
:10162000040EC06EC2801200D9CFE6FFE1CFD9FF11
:10163000020EE126DE6ADD6AC282C2B2FED7C45063
:10164000DE6EDD6ADECF12F0DDCF13F0D8901236F9
:101650001336D89012361336060EC3CFE7FF070BAA
:1016600004E0E742E79EE806FCE1E7501224106E32
:10167000000E132010C0DEFFDD6EDECFE1F0DDCF07
:10168000E2F0DECF10F0DDCF11F010C0F3FF11C09B
:10169000F4FF020EE15C02E2E16AE552E16EE5521E
:0616A000E7CFD9FF1200A4
:0A16A60006500B02F3CF02F0F4CF60
:1016B00003F00C02F3500326000EF420046E0650D3
:1016C0000D02F3500426000EF420056E06500E02A3
:1016D000F350052607500B02F3500326F450042262
:1016E000000E052207500C02F3500426F450052288
:1016F00007500D02F350052608500B02F350042644
:10170000F450052208500C02F350052609500B0234
:06171000F3500526120053
:0A171600056A046A036A026A200EE5
:10172000E76ED89006360736083609360236033695
:10173000043605360B50025C0C5003580D5004580B
:101740000E50055809E30B50025E0C50035A0D5021
:0E175000045A0E50055A062AE72EE4D712005E
:02175E00056A1A
:10176000046A036A180EE76ED89007360836093601
:101770000336043605360C50035C0D5004580E50E9
:10178000055807E30C50035E0D50045A0E50055ADD
:08179000072AE72EEAD7120038
:08179800056A046A100EE76EF9
:1017A000D89008360936043605360D50045C0E50C4
:1017B000055805E30D50045E0E50055A082AE72E21
:0417C000F0D712004C
:0C17C400800EF36E00EE00F00F0E01D856
:1017D0001200EA6002D0EE6AFCD7F350E960120012
:0417E000EE6AFCD7DA
:0C17E4001EEE00F02EEE00F0F86A019CF2
:1017F000BCEC0AF007EC00F061EC04F0FBD712003F
:1018000000000000000000000000000000000000D8
:1018100000000000000000000100010001000100C4
:1018200001020408102040800000000000000000B9
:101830000000000000000000101010101010101028
:1018400018181818181818181C1C1C1C1C1C1C1CF8
:101850001E1E1E1E1E1E1E1E1F1F1F1F1F1F1F1FA0
:101860000000000000000000000000000000000078
:101870000000000000000000000000000000000068
:101880000000000000000000000000000000000058
:011890000057
:0F18910000000000000000000000000000000048
:1018A0000000000000000000000000000000000038
:0918B00000102040800102040830
:020000040030CA
:0100010002FC
:0100020003FA
:010003001EDE
:010005008179
:010006008178
:010008000FE8
:01000900C036
:01000A000FE6
:01000B00E014
:01000C000FE4
:01000D0040B2
:00000001FF
